:100000000C942F010C9460010C9460010C9460011D
:100010000C9460010C9460010C9460010C946001DC
:100020000C9460010C9460010C9460010C946001CC
:100030000C9460010C9460010C9460010C946001BC
:100040000C9460010C9460010C9460010C946001AC
:100050000C9460010C9460010C9460010C94C50434
:100060000C9460010C9460010C9460010C9460018C
:100070000C9460010C9460010C9460010C9460017C
:100080000C9460010C9460010C9460010C9460016C
:100090000C9460010C9460010C9460010C9460015C
:1000A0000C9460010C9460010C9460010C9460014C
:1000B0000C9460010C9460010C9460010C9460013C
:1000C0000C9460010C9460010C9460010C9460012C
:1000D0000C9460010C9460010C9460010C9460011C
:1000E0000C9460010C949F010C948E010C94B70148
:1000F0000C94B3010C949B010C94C5010C94ED027B
:100100000C94BB010C9480010C948A010C94AD01F9
:100110000C9438080C9495010C94C0010C94A50122
:100120000C9492010C9486010C94A9010C949604F1
:100130000C94EC020C94C1010C94BF02000021004D
:10014000240027002A002D003000330001010000A8
:10015000040107010A0100002200250028002B00ED
:100160002E003100340002010000050108010B01DE
:10017000000020002300260029002C002F00320060
:100180000001000003010601090105050505070539
:1001900008080808020202020A0A08080404040403
:1001A000010101010101010103030303030303032F
:1001B000040707070C0C0C0C0C0C0C0C02020202BE
:1001C00006060606060606060B0B0B0B0B0B0B0BA7
:1001D0000102102020080810204010204080020159
:1001E000020108040201010204081020408080403E
:1001F000201008040201800402018040201008043D
:1002000002010804020101020408102040800102DA
:1002100004081020408000000A0B02090C0D0E0893
:1002200007030401000000000000000000000000BF
:1002300000000000000000000000000000000000BE
:10024000000012111000000000000000000000007B
:100250000000000000000000000000003808112429
:100260001FBECFEFD1E2DEBFCDBF00E00CBF12E07A
:10027000A0E0B2E0E2E0F5E100E00BBF02C00790D1
:100280000D92AC3BB107D9F722E0ACEBB2E001C074
:100290001D92A93EB207E1F711E0CFE2D1E000E004
:1002A00006C021970109802FFE010E94700ACE32FC
:1002B000D10780E00807A9F70E940F050C947F0A78
:1002C0000C9400008150823108F05AC0E82FF0E011
:1002D0008827E259FE4F8F4F0C94700A8E019201CD
:1002E000800186018A01C00195019B019F01A50142
:1002F000A901AD01B301B701C001BB01C101C50135
:10030000809180008F778093800008958091800095
:100310008F7DF9CF80918000877FF5CF84B58F776F
:1003200084BD089584B58F7DFBCF8091B0008F7719
:100330008093B00008958091B0008F7DF9CF8091B7
:1003400090008F77809390000895809190008F7D2A
:10035000F9CF80919000877FF5CF8091A0008F77B3
:100360008093A00008958091A0008F7DF9CF8091A7
:10037000A000877FF5CF809120018F7780932001A7
:100380000895809120018F7DF9CF80912001877F92
:10039000F5CFCF93DF93282F30E0F901EA5EFD4FD0
:1003A0008491F901E053FE4FD491F901E657FE4FD5
:1003B000C491CC23A1F081110E946201EC2FF0E0E6
:1003C000EE0FFF1FE059FE4FA591B491EC91ED2384
:1003D00081E090E009F480E0DF91CF91089580E022
:1003E00090E0FACF1F93CF93DF93282F30E0F901ED
:1003F000EA5EFD4F8491F901E053FE4FD491F9017B
:10040000E657FE4FC491CC23A9F0162F81110E940C
:100410006201EC2FF0E0EE0FFF1FEA5AFE4FA591AC
:10042000B4918FB7F894EC91111108C0D095DE23E8
:10043000DC938FBFDF91CF911F910895DE2BF8CF12
:10044000CF93DF9390E0FC01E053FE4F2491865759
:100450009E4FFC0184918823D1F090E0880F991F72
:10046000FC01E45CFE4FA591B491FC01EA5AFE4FF9
:10047000C591D491623071F49FB7F8943C91822F6A
:10048000809583238C93E8812E2B28839FBFDF9157
:10049000CF9108958FB7F894EC912E2B2C938FBFAA
:1004A000F6CF90917B00977F90937B00865380647A
:1004B00080937C0080917A00806480937A008091A0
:1004C0007A0086FDFCCF80917800909179000895A4
:1004D0003FB7F8948091CD029091CE02A091CF02C7
:1004E000B091D00226B5A89B05C02F3F19F0019608
:1004F000A11DB11D3FBFBA2FA92F982F8827BC017E
:10050000CD01620F711D811D911D42E0660F771FA5
:10051000881F991F4A95D1F708958F929F92AF92A5
:10052000BF92CF92DF92EF92FF924B015C010E944B
:1005300068026B017C010E9468026C197D098E09BA
:100540009F09683E734081059105A8F321E0821A56
:100550009108A108B10888EEC80E83E0D81EE11CFE
:10056000F11C81149104A104B10429F7FF90EF90CC
:10057000DF90CF90BF90AF909F908F900895AF92F3
:10058000BF92CF92DF92EF92FF920F931F93CF9380
:10059000DF936C017B018B01040F151FEB015E01E2
:1005A000AE18BF08C017D10759F06991D601ED9177
:1005B000FC910190F081E02DC6011995892B79F706
:1005C000C501DF91CF911F910F91FF90EF90DF90C8
:1005D000CF90BF90AF900895089590E080E0089587
:1005E000FC0101900020E9F73197AF01481B590B3E
:1005F000BC0181ED92E00C94BF028F929F92AF926A
:10060000BF920F931F93CF93DF93CDB7DEB7A19720
:100610000FB6F894DEBF0FBECDBF19A2423008F46A
:100620004AE08E010F5D1F4F842E912CB12CA12C1E
:10063000A50194010E947508E62FB901CA01EA30AC
:10064000F4F4E05DD801EE938D01232B242B252BB0
:1006500079F790E080E0109719F0CD010E94F00248
:10066000A1960FB6F894DEBF0FBECDBFDF91CF913C
:100670001F910F91BF90AF909F908F900895E95C6C
:10068000E1CF0C94F002CF93DF93EC0160E08E8118
:100690000E94F20161E08E810E94F20160E08E8191
:1006A0000E94F2018BE891E00197F1F7DF91CF9181
:1006B0000895CF92DF92EF92FF920F931F93CF9303
:1006C000DF936C017C0187E0E80EF11CD0E0C0E014
:1006D000062F10E0B8010C2E02C0759567950A949C
:1006E000E2F76170F70181917F010E94F20121968A
:1006F000C430D10579F7C601DF91CF911F910F91D9
:10070000FF90EF90DF90CF900C944303CF92DF9255
:10071000EF92FF920F931F93CF93DF93EC01F62E8E
:10072000642F8C810E94F2018D818F3F19F060E06F
:100730000E94F2010F2D10E08F8584FF25C06E010D
:1007400087E0C80ED11CF12CE12CB8010E2C02C0A0
:10075000759567950A94E2F76170F60181916F01D2
:100760000E94F201FFEFEF1AFF0A88E0E816F10499
:1007700061F7CE01DF91CF911F910F91FF90EF9024
:10078000DF90CF900C944303B80184E07595679592
:100790008A95E1F7CE010E9459036F2DCE01DF91BA
:1007A000CF911F910F91FF90EF90DF90CF900C941D
:1007B000590340E0682F81ED92E00C94860381E0BC
:1007C0000E94D9038BE39FE10197F1F70895CF933E
:1007D000DF93823029F49091E00298609093E002D8
:1007E0008093E4021092E50280E48093E60280E1C7
:1007F0008093E70280E58093E80261E08091D50272
:100800000E9420028091D6028F3F19F061E00E9481
:10081000200261E08091D7020E942002C1EDD2E067
:100820009E01215D32408091E00284FD0BC084E096
:1008300090E021962817390744F461E08E810E94E8
:100840002002EECF88E090E0F4CF8BE39DE00197AB
:10085000F1F760E08091D5020E94F20160E08091A2
:10086000D7020E94F2018091D6028F3F19F060E01A
:100870000E94F2018091E00284FD34C063E081EDCA
:1008800092E00E945903CBE4D6E4CE010197F1F740
:1008900063E081ED92E00E9459032197F1F763E054
:1008A00081ED92E00E94590383E592E00197F1F710
:1008B00062E081ED92E00E9459038091E002806243
:1008C0000E94D90384E08093E1028CE00E94D90366
:1008D0000E94DF0382E08093E20286E0DF91CF9105
:1008E0000C94D90380620E94D9038BE496E40197AB
:1008F000F1F78091E00280620E94D90383E592E0E3
:100900000197F1F78091E00280620E94D903D5CF70
:10091000E091E402E23040F4E150F0E0EF52FD4FAC
:10092000848980680C94D903E1E0F7CF41E00E940C
:10093000860381E090E00895CF92DF92EF92FF92DC
:100940006C01990FEE08FF08F7FE16C041E06DE25A
:1009500081ED92E00E94860366277727CB016C1910
:100960007D098E099F094AE00E94FD020196FF90D1
:10097000EF90DF90CF9008954AE0C701B601FF9055
:10098000EF90DF90CF900C94FD021F920F920FB664
:100990000F9211242F933F938F939F93AF93BF9305
:1009A0008091C9029091CA02A091CB02B091CC0271
:1009B0003091C80223E0230F2D3758F50196A11D71
:1009C000B11D2093C8028093C9029093CA02A093DC
:1009D000CB02B093CC028091CD029091CE02A09137
:1009E000CF02B091D0020196A11DB11D8093CD021E
:1009F0009093CE02A093CF02B093D002BF91AF915B
:100A00009F918F913F912F910F900FBE0F901F904C
:100A1000189526E8230F0296A11DB11DD2CF789418
:100A200084B5826084BD84B5816084BD85B58260F3
:100A300085BD85B5816085BD80916E0081608093A4
:100A40006E0010928100809181008260809381000D
:100A5000809181008160809381008091800081601D
:100A6000809380008091B10084608093B100809178
:100A7000B00081608093B00080919100826080938B
:100A8000910080919100816080939100809190000D
:100A90008160809390008091A10082608093A1008A
:100AA0008091A10081608093A1008091A00081606D
:100AB0008093A00080912101826080932101809128
:100AC00021018160809321018091200181608093C8
:100AD000200180917A00846080937A0080917A006E
:100AE000826080937A0080917A00816080937A009E
:100AF00080917A00806880937A001092C10082E031
:100B00000E94E70362E085E20E94200262E086E242
:100B10000E94200262E087E20E94200261E08AE2F5
:100B20000E94200261E08BE20E94200261E08CE2E0
:100B30000E94200261E081E20E94200261E082E2E4
:100B40000E94200261E083E20E94200261E084E2D0
:100B50000E94200261E08CE00E94200261E08DE0B2
:100B60000E94200288248A9483E0982EA12CB12C24
:100B7000C0E0D0E011E085E20E94C90121E0892BAC
:100B800009F020E02093C2028091C202811102C0CC
:100B90001092C70286E20E94C90121E0892B09F068
:100BA00020E02093C30287E20E94C90121E0892B43
:100BB00009F020E02093C40287E30E945102BC01A7
:100BC000990F880B990B0E9449092AE038E240EA04
:100BD0005BE30E94FE0920E030E048EC52E40E9412
:100BE000FE096093BC027093BD028093BE02909395
:100BF000BF0286E30E9451029093C1028093C0021B
:100C000088E30E94510224E630E0DC010E94780A69
:100C1000A50194010E9456083093C6022093C50294
:100C20008091C402811156C061E081E20E94F2010C
:100C300060E082E20E94F20161E083E20E94F20140
:100C40000E94DF038CE092E00E9441030E9488042E
:100C50008DE192E00E9441031092C70264EF71E0BF
:100C600080E090E00E948D028091C202882309F406
:100C700040C08091C70281113CC08091C40288238A
:100C8000C1F18091C5029091C602181619060CF4A4
:100C9000CFC08091C30281112CC061E084E20E9428
:100CA000F20161E08AE20E94F2010E94DF038CE21D
:100CB00092E00E9441030E9488048BE392E00E942C
:100CC00041031092C70268EC70E080E090E00E945F
:100CD0008D0217C060E081E20E94F20160E082E2D2
:100CE0000E94F20160E083E20E94F2010E94DF03B1
:100CF000BBCF60E084E20E94F20160E08AE20E94E1
:100D0000F2018091C302882341F060E084E20E94F6
:100D1000F20160E08AE20E94F2016091BC027091EF
:100D2000BD028091BE029091BF0220E030E048EC0D
:100D300051E40E94F90918160CF011C18091C70204
:100D4000882309F40CC161E08CE00E94F2010E944A
:100D5000DF0389E492E00E944103C090BC02D0907E
:100D6000BD02E090BE02F090BF02A7019601C7014C
:100D7000B6010E946B0A882309F45DC084E592E005
:100D80000E94F0020E94880480E692E00E944103E3
:100D90006CE271E080E090E00E948D028091C002E0
:100DA0009091C1028B3F91050CF0DEC08091C7028B
:100DB000882309F4D9C061E08BE20E94F2010E940D
:100DC000DF038DE692E00E9441036CE271E080E077
:100DD00090E00E948D028091C5029091C602181683
:100DE00019060CF4D7C01092C70260E08DE00E9493
:100DF000F2010E94DF0388E892E00E9441030E9412
:100E0000880484E992E00E94410360E08AE20E9443
:100E1000F20160E08BE20E94F20160E08CE20E944D
:100E2000F2016AEF70E080E090E00E948D02F5C070
:100E30001093C7022ECF26013701E89477F82FEFE1
:100E40003FEF4FE75FE7C301B2010E946B0A8111D8
:100E50000DC02FEF3FEF4FE75FE7C301B2010E94E4
:100E6000130918161CF488E592E08ACF2FEF3FEFA4
:100E70004FE75FE4C701B6010E94F90918161CF498
:100E80008CE592E07DCF2FEF3FEF4FE75FECC7019E
:100E9000B6010E94130987FDF3CF20E030E0A901DD
:100EA000C701B6010E94130987FF0AC041E06DE245
:100EB00081ED92E00E948603F7FAF094F7F8F0943F
:100EC0002AE037ED43EA5BE3C701B6010E94A708B9
:100ED0002B013C010E9418096B017C010E9447090B
:100EE0009B01AC01C301B2010E94A6082B013C0189
:100EF0004AE0C701B6010E94FD0241E06EE281EDC9
:100F000092E00E94860320E030E040E251E4C30119
:100F1000B2010E94FE092B013C010E9418096B01DD
:100F2000F12CE12C4AE0C701B6010E94FD02C70185
:100F3000B6010E9447099B01AC01C301B2010E94A6
:100F4000A60820E030E040E251E40E94FE090E9441
:100F5000180990E080E04AE00E94FD0213CF60E0B3
:100F60008CE00E94F2011ACF8BE20E94C901019726
:100F700061F40E94DF0389E792E00E9441036EEE74
:100F800072E080E090E00E948D0260E08BE20E94BF
:100F9000F20121CF8091C5029091C60205977CF5A0
:100FA0008091C702882359F12FB7F8946091C90244
:100FB0007091CA028091CB029091CC022FBF24EF96
:100FC00031E040E050E00E947508622F61708CE2D1
:100FD0000E94F2010E94DF0380EA92E00E94410336
:100FE0008091C5029091C6020E949C048FEA92E013
:100FF0000E9441036CE271E080E090E016CF8091A6
:10100000C5029091C6020A9724F48091C70281110B
:1010100026C060E08CE20E94F2018091C702882322
:10102000A1F08091C5029091C602181619066CF4C1
:101030008091C402882349F08091C302882329F05B
:101040008091C20261E0811101C060E08DE00E94E8
:10105000F201209709F48FCD0E9400008CCD61E051
:101060008CE20E94F2010E94DF0381EB92E0B6CF96
:10107000E1EDF2E01382128284E092E091838083BA
:1010800086E184838FEF858387E1868388E1878388
:1010900089E180878AE181878BE1828713861486C4
:1010A00015861686178681E00C94E703052E97FBBC
:1010B0001EF400940E946D0857FD07D00E94750829
:1010C00007FC03D04EF40C946D0850954095309574
:1010D00021953F4F4F4F5F4F0895909580957095A4
:1010E00061957F4F8F4F9F4F0895A1E21A2EAA1B43
:1010F000BB1BFD010DC0AA1FBB1FEE1FFF1FA217C8
:10110000B307E407F50720F0A21BB30BE40BF50BC4
:10111000661F771F881F991F1A9469F7609570954D
:10112000809590959B01AC01BD01CF010895A29FD0
:10113000B001B39FC001A39F700D811D1124911DAB
:10114000B29F700D811D1124911D08955058BB2729
:10115000AA270E94BE080C94BF090E94B10938F06A
:101160000E94B80920F039F49F3F19F426F40C943A
:10117000AE090EF4E095E7FB0C94A809E92F0E9454
:10118000D00958F3BA17620773078407950720F050
:1011900079F4A6F50C94F2090EF4E0950B2EBA2F13
:1011A000A02D0B01B90190010C01CA01A00111246D
:1011B000FF27591B99F0593F50F4503E68F11A1619
:1011C000F040A22F232F342F4427585FF3CF4695AA
:1011D00037952795A795F0405395C9F77EF41F16CC
:1011E000BA0B620B730B840BBAF09150A1F0FF0F96
:1011F000BB1F661F771F881FC2F70EC0BA0F621F82
:10120000731F841F48F4879577956795B795F79571
:101210009E3F08F0B0CF9395880F08F09927EE0F06
:101220009795879508950E94840908F481E00895B0
:101230000E94D80988F09F5798F0B92F9927B75185
:10124000B0F0E1F0660F771F881F991F1AF0BA956A
:10125000C9F714C0B13091F00E94F209B1E00895CD
:101260000C94F209672F782F8827B85F39F0B93FBF
:10127000CCF3869577956795B395D9F73EF490951D
:101280008095709561957F4F8F4F9F4F0895E8949B
:1012900009C097FB3EF490958095709561957F4FBE
:1012A0008F4F9F4F9923A9F0F92F96E9BB2793956C
:1012B000F695879577956795B795F111F8CFFAF47C
:1012C000BB0F11F460FF1BC06F5F7F4F8F4F9F4FAD
:1012D00016C0882311F096E911C0772321F09EE80B
:1012E000872F762F05C0662371F096E8862F70E071
:1012F00060E02AF09A95660F771F881FDAF7880F4B
:101300009695879597F90895990F0008550FAA0BA0
:10131000E0E8FEEF16161706E807F907C0F0121608
:101320001306E407F50798F0621B730B840B950B0B
:1013300039F40A2661F0232B242B252B21F4089560
:101340000A2609F4A140A6958FEF811D811D0895FD
:1013500097F99F6780E870E060E008959FEF80EC68
:10136000089500240A94161617061806090608950B
:1013700000240A9412161306140605060895092E71
:101380000394000C11F4882352F0BB0F40F4BF2BE0
:1013900011F460FF04C06F5F7F4F8F4F9F4F089520
:1013A00057FD9058440F551F59F05F3F71F0479516
:1013B000880F97FB991F61F09F3F79F087950895FB
:1013C000121613061406551FF2CF4695F1DF08C01A
:1013D000161617061806991FF1CF86957105610537
:1013E00008940895E894BB2766277727CB0197F9DF
:1013F00008950E94840908F48FEF08950E94110A4D
:101400000C94BF090E94B10938F00E94B80920F07D
:10141000952311F00C94A8090C94AE0911240C9496
:10142000F3090E94D00970F3959FC1F3950F50E026
:10143000551F629FF001729FBB27F00DB11D639F86
:10144000AA27F00DB11DAA1F649F6627B00DA11D2C
:10145000661F829F2227B00DA11D621F739FB00DD2
:10146000A11D621F839FA00D611D221F749F332742
:10147000A00D611D231F849F600D211D822F762FDB
:101480006A2F11249F5750409AF0F1F088234AF0B8
:10149000EE0FFF1FBB1F661F771F881F9150504024
:1014A000A9F79E3F510580F00C94A8090C94F3090C
:1014B0005F3FE4F3983ED4F3869577956795B795AB
:1014C000F795E7959F5FC1F7FE2B880F911D9695C5
:1014D000879597F908950E948409880B990B0895C0
:1014E000EE0FFF1F881F8BBF0790F691E02D199418
:1014F0000E949708B7FF0895821B930B0895F894F4
:02150000FFCF1B
:10150200000000009604BF02ED02EC025579617200
:10151200693A204B617069204163696B004D6F74B9
:101522006F722043616C69736D617A00456D6E69FB
:10153200796574204B656D6572690054616B696CE5
:101542006920446567696C2100536963616B6C694A
:101552006B3A20006E616E00696E66006F766600FF
:101562004B6C696D61204163696C6469004661720C
:101572006C6172204163696B004661726C6172201A
:101582004B6170616E64690059616B6974204269D4
:10159200747469004D6F746F7220447572647500C3
:1015A2004B726974696B2059616B69743A2000252A
:0C15B2000059616B697420417A3A2000F6
:00000001FF
